:020000040000fa
:080000000002040000000000f2
:020000040000fa
:100400006faa20004e7e21000e018800000000002f
:100410000c000700803d21000100200011000700b2
:10042000000020000000e000020032000000020096
:100430000000000086100200000000000040da000a
:100440000000fe004440a900000020000000e00081
:100450000300320000002000a00188004440a800f2
:100460000000060091018800800078000000eb0089
:1004700015003700e280400032a0b4009101ba00bc
:10048000e280400032a0b4009102ba00e280400055
:1004900032a0b4000002eb00472bde00f507b200eb
:1004a000602ce10004003a000059eb008301e900f0
:1004b000fdff3e00040037006128e100010032002a
:1004c0000082eb00040007001101ba000200e00006
:1004d000e8ff3a00000006003159ba008301e90044
:1004e0000c0032002159ba008301e90008003200f3
:1004f0000400e00003003a00e280400032a0b400b3
:10050000f5ff370011d9ba008301e900faff3a007c
:100510008100e800e180400032a0b4000000060045
:100520000040da000000fe00839f68000100e00048
:1005300002003d0060001000e08018000300e000b1
:1005400002003d0060011100e08119000500070074
:100550004f00e00002003b0060001000e080180047
:10056000000006006022b800060220000000d00053
:100570008180d2000482d2008582d2000000a000d7
:100580000202520083825a0003003100020242003c
:1005900083824a000000a1000603e900f3ff3a004d
:1005a00000000600881f78008a1f78004400f800c9
:1005b000080f200028028800000490001005900019
:1005c000a000900030019000c00190000300ca001c
:1005d0000280ca000030cb001a00cd004604c300e0
:1005e0000100ca004604c0001e04c0000605c00089
:1005f0000100cd0021009800050d7800eaba9700af
:10060000052578004400f9004f0578004f04780074
:1006100000000600801f78004000b0000008eb00da
:100620004f007800801f7800100090000018eb0049
:100630000018eb000008eb004f00780000000600f7
:100640004400f800020f2000220288009100780088
:100650003000ca003080ca000000cb002080ca00f1
:100660000000cb003100cd004000ca000000cb00ec
:100670000000cb000010cb003100cd001180cc0079
:080680004400f900000006002f
:020000040000fa
:0200000401f009
:040010001bff0000d2
:020000040000fa
:0200000401f009
:040014007fff00006a
:020000040000fa
:1000080090020000900200009002000090020000a0
:100018009002000090020000900200009002000090
:10002800900200009002000090020000a60d00005f
:100038009002000090020000900200009002000070
:100048009002000090020000900200006e13000071
:10005800861100004013000090020000900200008a
:100068009002000090020000900200009002000040
:100078009002000090020000900200009002000030
:100088009002000090020000900200009002000020
:100098009002000090020000900200009002000010
:1000a8009002000090020000900200009002000000
:1000b80090020000900200009002000090020000f0
:1000c80090020000900200009002000090020000e0
:1000d80090020000900200009002000090020000d0
:1000e80090020000900200009002000090020000c0
:1000f80090020000900200009002000090020000b0
:1001080090020000900200009a1000009002000087
:10011800900200009002000090020000900200008f
:10012800900200009002000090020000900200007f
:10013800900200009002000090020000900200006f
:10014800900200009002000090020000c810000019
:10015800900200009002000090020000900200004f
:10016800900200009002000090020000900200003f
:10017800900200009002000090020000900200002f
:10018800900200009002000090020000900200001f
:10019800900200009002000090020000900200000f
:1001a80090020000900200009002000090020000ff
:1001b80090020000900200009002000090020000ef
:1001c80090020000900200009002000090020000df
:1001d80090020000900200009002000090020000cf
:1001e80090020000900200009002000090020000bf
:0801f8009002000090020000db
:020000040000fa
:10020800900200009002000090020000900200009e
:10021800900200009002000090020000900200008e
:10022800900200009002000090020000a60d00005d
:10023800900200009002000090020000900200006e
:100248009002000090020000900200006e1300006f
:100258008611000040130000900200009002000088
:10026800900200009002000090020000900200003e
:10027800900200009002000090020000900200002e
:10028800900200009002000090020000900200001e
:10029800900200009002000090020000900200000e
:1002a80090020000900200009002000090020000fe
:1002b80090020000900200009002000090020000ee
:1002c80090020000900200009002000090020000de
:1002d80090020000900200009002000090020000ce
:1002e80090020000900200009002000090020000be
:1002f80090020000900200009002000090020000ae
:1003080090020000900200009a1000009002000085
:10031800900200009002000090020000900200008d
:10032800900200009002000090020000900200007d
:10033800900200009002000090020000900200006d
:10034800900200009002000090020000c810000017
:10035800900200009002000090020000900200004d
:10036800900200009002000090020000900200003d
:10037800900200009002000090020000900200002d
:10038800900200009002000090020000900200001d
:10039800900200009002000090020000900200000d
:1003a80090020000900200009002000090020000fd
:1003b80090020000900200009002000090020000ed
:1003c80090020000900200009002000090020000dd
:1003d80090020000900200009002000090020000cd
:1003e80090020000900200009002000090020000bd
:0803f8009002000090020000d9
:020000040000fa
:100688001600fa0050079800610798007207980052
:10069800030f9800140f98007e0090001040780017
:1006a8000004e00008003a006e00900090407800d6
:1006b80030c2b30080cf5000030032000000eb00ce
:1006c800200f98003a0237007e0090001040780012
:1006d800e34f500022003a006e0090000000e8004e
:1006e800104078000081fb006e0090000080e80058
:1006f800104078000080fb008080ea00f00f2000a6
:1007080000806000800f51000f003a006e009000da
:100718000000e80010407800e34f50000a0036005f
:100728006e0090000000e8001040780044e9b7002f
:100738007e009000104078008040e8007e00900025
:100748000148780003003700fe0090000040eb00ed
:10075800804878008000eb00210f980014023700d1
:100768007e00900010407800e34f500024003600cf
:100778007e0090009040780044c9bf0080cf5000b0
:100788001f003900fe0090000040eb008048780010
:1007980044c9bf0063405000804078006e0090005c
:1007a80063004000c30407000041780044c9bf004b
:1007b8000080fb00800078006e0090000080400000
:1007c80010407800804f5100030032000000eb0019
:1007d800200f9800f60137006e009000630040007b
:1007e80090407800114f980040c0b30070479800bf
:1007f8009e0890000040eb0080487800e401370034
:100808007e009000104078008040e8007e00900054
:10081800014878000000eb00200f9800e401370041
:100828007e4090000080fb00800078006e00900001
:10083800008040000080e800100798007e4090008b
:100848000080fb00800078006e009000008040006f
:1008580010407800f04f500041003a005e009000d0
:10086800e06090001e48900080cf500003003200e6
:100878001e4890000004e000ba013a000040eb0076
:10088800604798000040eb00504798007e40900079
:100898000080fb00800078006e009000008040001f
:1008a8000000e80090407800014f980021003700d0
:1008b8005e009000e80040006e4090000080fb0061
:1008c800008f40000040eb004047980010003700c0
:1008d8004e4090000080fb001e0140005e409000ea
:1008e8000080fb00800078001e009000808040009f
:1008f8004e4090000080fb000080400010407800cf
:10090800004978004e4090000040e80040479800b9
:100918004e4090000004e000edff32006e40900071
:100928000040e800604798005e4090000040e80002
:1009380050479800de4090000e48900080cf50004d
:10094800030031006e409000e14f5000d8ff3600a0
:10095800de00900010c0b300c04898008101370045
:100968007e4090000080fb00800078006e009000c0
:100978000080400010407800f14f500046003a00d7
:100988005e009000e06090001e48900080cf50000c
:10099800030032001e4890000004e00071013a0094
:1009a8000040eb00604798000040eb00504798007b
:1009b8007e4090000080fb00800078006e00900070
:1009c800008040000000e800104078000080fb0034
:1009d8004200de00004f9800240037005e009000bf
:1009e800ee0040006e4090000080fb004200dd00f9
:1009f80000804000000f78000040eb00404798005e
:100a0800110037004e4090000080fb001e0140009e
:100a18005e4090000080fb004200dd00800078000e
:100a28001e009000808040004e4090000080fb0037
:100a38000080400010407800004978004e40900047
:100a48000040e800404798004e409000e34f5000b7
:100a5800ecff36006e4090000040e80060479800c8
:100a68005e4090000040e80050479800de4090004b
:100a78000e48900080cf5000030031006e40900077
:100a8800e14f5000d5ff3600de00900010c0b300e3
:100a980080589800330137007e4090000080fb00aa
:100aa800800078006e0090000080400010407800c0
:100ab800fa4f50005d003a007e4090000080fb0035
:100ac800800078006e009000008040000000e80080
:100ad800104078000080fb004200de00004f9800c4
:100ae8000e4890000004e00013003a005e009000f9
:100af800e06090001e48900080cf50000e003a0041
:100b08001e089000104078000080fb0080007800ec
:100b18000e08900080804000a0c1b3008048780093
:100b28001e089000104078008040e8001e089000e1
:100b3800014878000b0137000e4890000004e000df
:100b4800080132000040eb00604798000040eb00cd
:100b5800504798002d0037006e4090000080fb0041
:100b6800de0090002002b0000100400090407800b4
:100b78001e48900080cf500021003a005e0090008f
:100b8800fa0040006e4090000080fb004200dd004b
:100b980000804000000f78000040eb0040479800bc
:100ba800110037004e4090000080fb001e014000fd
:100bb8005e4090000080fb004200dd00800078006d
:100bc8001e009000808040004e4090000080fb0096
:100bd8000080400010407800004978004e409000a6
:100be8000040e800404798004e409000e34f500016
:100bf800ecff36005e4090000040e8005047980047
:100c08006e4090000040e80060479800de40900089
:100c18000e48900080cf5000d20031006e40900006
:100c2800e14f5000ccff3600ce0037007e409000e8
:100c38000080fb00800078006e009000008040007b
:100c480010407800e24f50005c003a007e4090006f
:100c58000080fb00800078006e009000008040005b
:100c68000000e800104078000080fb000000d10080
:100c7800004f98000e4890000004e00013003a006e
:100c88005e009000e06090001e48900080cf500009
:100c98000e003a001e089000104078000080fb000b
:100ca800800078000e0890008080400020c0b300cb
:100cb800804878001e089000104078008040e800c6
:100cc8001e08900001487800a60037000e489000e2
:100cd8000004e000a30032000040eb0060479800e9
:100ce8000040eb00504798002c0037006e40900001
:100cf8000080fb00de0090000080e800010040005a
:100d0800904078001e48900080cf500020003a00a4
:100d1800de0090006e4090000080fb000000400064
:100d280000804000000f78000040eb00404798002a
:100d3800110037004e4090000080fb001e0140006b
:100d48005e4090000080fb000000400080007800ba
:100d58001e009000808040004e4090000080fb0004
:100d68000080400010407800004978004e40900014
:100d78000040e800404798004e409000e14f500086
:100d8800ecff36005e4090000040e80050479800b5
:100d98006e4090000040e80060479800de409000f8
:100da8000e48900080cf50006e0031006e409000d9
:100db8000004e000cdff32006a0037007e4090005a
:100dc8000080fb00800078006e00900000804000ea
:100dd80010407800e34f50005d003a007e409000dc
:100de8000080fb00800078006e00900000804000ca
:100df8000000e800104078000080fb000000d100ef
:100e0800004f98000e4890000004e00013003a00dc
:100e18005e009000e06090001e48900080cf500077
:100e28000e003a001e089000104078000080fb0079
:100e3800800078000e0890008080400030c0b30029
:100e4800804878001e089000104078008040e80034
:100e58001e08900001487800420037000e489000b4
:100e68000004e0003f0032000040eb0060479800bb
:100e78000040eb00504798002d0037006e4090006e
:100e88000080fb00de00900066004000010040008a
:100e9800904078001e48900080cf500021003a0012
:100ea8005e009000e40040006e4090000080fb006f
:100eb8000000400000804000000f78000040eb0078
:100ec80040479800110037004e4090000080fb001a
:100ed8001e0140005e4090000080fb0000004000c2
:100ee800800078001e009000808040004e409000f6
:100ef8000080fb0000804000104078000049780026
:100f08004e4090000040e800404798004e40900056
:100f1800e14f5000ecff36005e4090000040e800d2
:100f2800504798006e4090000040e80060479800e5
:100f3800de4090000e48900080cf5000090031003c
:100f48006e4090000004e000ccff3200050037003e
:100f58005e019000b2109000002020000080700018
:100f6800301198007e4090000080fb0080007800df
:100f78006e009000008040000000e800904078007b
:100f88007e40900000c0400000c0e8007047980014
:100f980041942000914078007e409000814f50009d
:100fa8001ffe39007e4090000080fb00200f980053
:100fb8002e0890000080fa00000006001200fa00d7
:100fc800881f7800500798006107980072079800fa
:100fd8000357980014579800ee00900030c2b300f1
:100fe800804878006e009000630040009e5090009a
:100ff8000148780040c0b300004f98000040eb0063
:1010080070479800020237000e4890000080fb00ed
:10101800800078006e009000008040000080e800aa
:10102800100798007e4090000080fb008000780048
:101038007e0090000080400010407800f04f500083
:1010480050003a000040eb00504798000040eb0089
:10105800604798002a0037005e4090000080fb003f
:10106800de0090006a0040000100400090407800d7
:101078001e50900080cf50001e003a005e00900085
:10108800e80040005e4090000080fb00008f4000b8
:101098000040eb0040479800100037006e40900079
:1010a8000080fb00800078001e00900080804000d7
:1010b8004e4090000080fb00808040004e40900031
:1010c8000080fb001e004000104078008048780037
:1010d8004e4090000040e800404798004e40900085
:1010e8000004e000edff32006e4090000040e80090
:1010f800604798005e4090000040e8005047980024
:101108005e409000e14f5000d3ff36006e409000e3
:101118000004e000bb0132000e4890000080fb0094
:10112800800078006e0090008080400000c1b3000d
:10113800804878000e4890000080fb00800078000e
:101148006e009000008040000000e800ee40900033
:10115800014878000e4890000080fb00800078006d
:101168006e009000008040000000e8009040780089
:101178000e48900000c0400000c0e800004f9800f2
:10118800a00137007e4090000080fb0080007800be
:101198007e0090000080400010407800f14f500021
:1011a80055003a000040eb00504798000040eb0023
:1011b800604798002d0037005e4090000080fb00db
:1011c800de0090007600400001004000904078006a
:1011d8001e50900080cf500021003a005e00900021
:1011e800ee0040005e4090000080fb004200dd0001
:1011f80000804000000f78000040eb004047980056
:10120800110037006e4090000080fb004200dd00b6
:10121800800078001e009000808040004e409000c2
:101228000080fb00808040004e4090000080fb0062
:101238001e00400010407800804878004e40900022
:101248000040e800404798004e409000e34f5000af
:10125800ecff36006e4090000040e80060479800c0
:101268005e4090000040e800504798005e409000c3
:10127800e14f5000d0ff36006e4090000004e000bf
:10128800600132000e4890000080fb00800078006a
:101298006e0090008080400010c1b3008048780044
:1012a8000e4890000080fb00800078006e009000df
:1012b800008040008000e8006e4090000080fb0045
:1012c8004200dd00804878000e4890000080fb0056
:1012d800800078006e009000008040000000e80068
:1012e800904078000e48900000c0400000c0e80020
:1012f800004f9800430137007e4090000080fb00bb
:10130800800078007e009000008040001040780047
:10131800e24f500060003a005e009000e0609000ec
:101328001e50900080cf500048003a000040eb006b
:10133800504798000040eb006047980023003700b2
:10134800de0090005e4090000080fb00000040003e
:1013580000804000000f78000040eb0040479800f4
:10136800110037006e4090000080fb000000400034
:10137800800078001e009000808040004e40900061
:101388000080fb00808040004e4090000080fb0001
:101398001e00400010407800804878004e409000c1
:1013a8000040e800404798004e409000e14f500050
:1013b800ecff36006e4090000040e800604798005f
:1013c8005e4090000040e800504798005e40900062
:1013d8000004e000daff32000e4890000080fb00b5
:1013e800800078006e0090008080400020c0b3002c
:1013f800804878000e4890000080fb00800078004c
:101408006e009000008040008000e8006e40900070
:101418000080fb0000004000804878000e489000e3
:101428000080fb00800078006e0090000080400083
:101438000000e800904078000e48900000c040008e
:1014480000c0e800004f9800ee0037000e489000fa
:101458000080fb00800078006e00900080804000d3
:1014680020c0b300804878000e4890000080fb0040
:10147800800078006e009000008040008000e80046
:101488000040eb00804878000e48900000c0e8005b
:10149800004f9800db0037007e4090000080fb0082
:1014a800800078007e0090000080400010407800a6
:1014b800e34f500061003a005e009000e060900049
:1014c8001e50900080cf500049003a000040eb00c9
:1014d800504798000040eb00604798002400370010
:1014e8005e009000e40040005e4090000080fb0039
:1014f8000000400000804000000f78000040eb0032
:1015080040479800110037006e4090000080fb00b3
:1015180000004000800078001e009000808040009d
:101528004e4090000080fb00808040004e409000bc
:101538000080fb001e0040001040780080487800c2
:101548004e4090000040e800404798004e40900010
:10155800e14f5000ecff36006e4090000040e8007c
:10156800604798005e4090000040e80050479800af
:101578005e4090000004e000d9ff32000e48900061
:101588000080fb00800078006e00900080804000a2
:1015980030c0b300804878000e4890000080fb00ff
:1015a800800078006e009000008040008000e80015
:1015b8006e4090000080fb000000400080487800ea
:1015c8000e4890000080fb00800078006e009000bc
:1015d800008040000000e800904078000e4890002d
:1015e80000c0400000c0e800004f980085003700a8
:1015f8000e4890000080fb00800078006e0090008c
:101608008080400030c0b300804878000e489000c9
:101618000080fb00800078006e0090000080400091
:101628008000e8000040eb00804878000e489000f9
:1016380000c0e800004f9800720037007e4090001c
:101648000080fb00800078007e0090000080400051
:1016580010407800fa4f500061003a005e00900098
:10166800e06090001e50900080cf500049003a0082
:101678000040eb00504798000040eb00604798009e
:10168800240037005e009000fa0040005e409000a1
:101698000080fb004200dd0000804000000f780061
:1016a8000040eb0040479800110037006e40900062
:1016b8000080fb004200dd00800078001e009000e2
:1016c800808040004e4090000080fb0080804000f9
:1016d8004e4090000080fb001e0040001040780043
:1016e800804878004e4090000040e800404798004d
:1016f8004e409000e34f5000ecff36006e409000e3
:101708000040e800604798005e4090000040e80014
:10171800504798005e409000e14f5000d9ff3600d6
:101728000e4890000080fb00800078006e0090005a
:1017380080804000a0c1b300804878000e48900027
:101748000080fb00800078006e0090000080400060
:101758008000e8006e4090000080fb004200dd0041
:10176800804878000e4890000080fb0080007800d8
:101778006e009000008040000000e8009040780073
:101788000e48900000c0400000c0e800004f9800dc
:101798001c0037000e4890000080fb008000780095
:1017a8006e00900080804000a0c1b300804878009f
:1017b8000e4890000080fb00800078006e009000ca
:1017c800008040008000e8000040eb00804878007e
:1017d8000e48900000c0e800004f9800090037004c
:1017e8005e019000b2109000004020000080700060
:1017f800301198007e4090000040e8007047980043
:10180800030037007e4090000040e80070479800d1
:10181800fe4090000e50900080cf5000fafd390035
:101828000e4890000080fb00800078006e00900059
:10183800008440000e4890006340500080407800cb
:101848006e009000630040009a000700004c78008a
:101858006e0090000000e8008e4890000148780073
:101868006e0090008080e8000e48900000c0ea00fa
:10187800804878000e4890000040e8000080fb0097
:101888004f0478000080fa00000006000400fa0007
:10189800100798000000eb00000f78000c003700dc
:1018a8001e0078009e0090000080e8008100400043
:1018b8000040eb00804878001e0078001e01900070
:1018c800800040000000eb00803079001e0fe80027
:1018d8001e00e000f2ff32000000eb00000f78006d
:1018e8000d0037001e0078009e0090006600400042
:1018f800810040000040eb00804878001e0078001e
:101908001e01900000004000e40040000000eb00d1
:10191800803079001e0fe8001e00e000f1ff320061
:101928000000eb00000f78000d0037001e00780063
:101938009e0090006a004000810040000040eb00db
:10194800804878001e0078009e00900068004000e3
:10195800810040000040eb00804878001e0fe8003e
:10196800100020009e0f1000f0ff36000000eb0072
:10197800000f78000e0037001e0078009e009000cf
:1019880076004000810040000040eb00804878006d
:101998001e0078009e0090004200dd006e004000ae
:1019a800010140006000b8000089be001e0fe80079
:1019b800100020009e0f1000efff36000000eb0023
:1019c800000f78000e0037001e0078009e0090007f
:1019d8002002b000810040000040eb008048780001
:1019e8001e0078009e0090004200dd007a00400052
:1019f800010140006000b8000089be001e0fe80029
:101a0800100020009e0f1000efff36000080fa0043
:101a1800000006000400fa000000eb00000f780048
:101a28001f0037001e0078003047980080c0b300c0
:101a380020479800110037003e4090000004e00065
:101a480008003d003e4090000080fb000000400080
:101a58008040780080cdb30000c06800304798000f
:101a6800030037003e409000004040003047980097
:101a78002e4090000040e900204798002e4090003a
:101a88000004e000ecff3a001e00780051942000aa
:101a980001004000be409000014878001e0fe80099
:101aa800f00f20009e0f1000deff36000080fa00c5
:101ab800000006000800fa00200798006147980017
:101ac8000040eb00004f78000040eb001047980002
:101ad800150037001e4090000080fb008000780051
:101ae8002e00900000804000104078001e406800e2
:101af800204798002e4090008080fb0050942000e2
:101b08000080400010407800804078001e80fb0074
:101b18004800dd0000c06800004f78001e409000bb
:101b28000040e800104798009e4090006e409000ea
:101b380080cf5000e7ff39001e80fb000080fa00cc
:101b4800000006003600f800809fbe00829fbe009d
:101b5800849fbe00869fbe00889fbe000400fa00d6
:101b68009041800001102000010060000000e000aa
:101b78002e00320024c8bf000004e000100032002c
:101b8800d0408000e1408000a20020000300200037
:101b980063fa070050548800f0408000014180003b
:101ba800a2002000030020005dfa070060548800ae
:101bb8000000eb00a05488000040eb0024e8b700c8
:101bc80018c8bf000004e0001700320014c8bf00a6
:101bd8000004e00012003a000000eb00a0bf8800fb
:101be8000000eb00b0bf88000000eb00c0bf880019
:101bf8000000eb00d0bf88000000eb00e0bf8800c9
:101c08000000eb00f0bf880060a420007ffa070006
:101c180000a520007dfa070040062000a054880097
:101c28000040eb0018e8b7003308a900a801070036
:101c380010079800a10107008000780000fa200032
:101c48000088b900800078001e0090000100400064
:101c58001007980092548000315480001e009000b4
:101c68008101500082004100a0a5200000804000b2
:101c7800030878001e009000305488000000eb0034
:101c8800105488000000eb00000f780009003700ae
:101c98001e00780080004000a0a5200000804000c1
:101ca8009000780010548000008040001054880094
:101cb8001e0fe800900020009e0f1000f4ff340073
:101cc8001054800060528800505480007052880080
:101cd800a154800030062000808f500005003c0091
:101ce80060a420002dfa0700505280001f02070050
:101cf800020037000000eb001c0207007d0107000e
:101d080010079800760107008000780000fa20008c
:101d18000088b900800078001e0090000100400093
:101d28001007980092548000415480001e009000d3
:101d38008101500082004100e0a6200000804000a0
:101d4800030878001e0090004054880090548000da
:101d58000000e8009054880090548000e90f50007b
:101d6800020034000000eb00905488000000eb00f3
:101d7800205488000000eb00000f780009003700ad
:101d88001e00780080004000e0a62000008040008f
:101d98009000780020548000008040002054880083
:101da8001e0fe800900020009e0f1000f4ff340082
:101db80020548000b052880060548000c0528800cf
:101dc800a154800030062000808f500005003c00a0
:101dd80000a52000f1f90700a0528000f2010700d9
:101de800020037000000eb00ef010700a15480005b
:101df80030062000808f500003003c00a054800073
:101e08000000e800a0548800310107006104b80010
:101e18002a0107008000780000fa20000088b90035
:101e2800cf80de00080040008980480030418800eb
:101e3800414188002f0107006104b800280107000c
:101e48008000780000fa20000088b900cf80de000a
:101e5800080040008980480050418800614188009e
:101e68008460a9000080fa004f04be004f03be0042
:101e78004f02be004f01be004f00be003600f90001
:101e8800004006000600fa0020332700000f780003
:101e980060662600100798000000eb0020079800f5
:101ea8000080200030528800407f21004052880086
:101eb8006080200080528800a07f21009052880016
:101ec80060a42000d1f9070000a52000cff9070081
:101ed80061a420000e007800d7f9070001a52000b2
:101ee8000e007800d4f907000080fa000000060010
:101ef8000000fa00113a8000f0fb2f00008160001a
:101f080061042000700520002374200081497800b6
:101f180080497800824978000080eb0060198800c9
:101f2800416a20009140780000ceb30000c06000f4
:101f38003040b300a4e6b700416c2000914078001f
:101f480000ceb30000c060003040b300c4e6b70064
:101f5800c16920009140780000ceb30000c0600045
:101f68000004a0009ce6b700d169200091407800e9
:101f780000ceb30000c060009de6b700e169200014
:101f88009140780000ceb30000c060000014a000ab
:101f98009ee6b700016a20009140780000ceb300a9
:101fa80000c060000034a000a0e6b700116a20005d
:101fb8009140780000ceb30000c060007040b300cc
:101fc800a1e6b700216a20009140780000ceb30056
:101fd80000c060009040b300a2e6b700c9e2a900c3
:101fe800cfe2a900cbe2a800c982a900cf82a9004c
:101ff800cb82a800c962a900cf62a900cb62a90060
:10200800c9c2a900cfc2a900cbc2a900c082a90039
:10201800c682a900c282a900113a800000042000eb
:1020280000817000610420007005200023742000e6
:102038008149780080497800824978000080fa0058
:10204800000006000000fa0090022000303a8800e4
:1020580044c7bf00f043b20044e7b7004174200012
:102068009140780000ceb30000c0600044e7b7009c
:102078000000eb00403a880040a7a90012002000a9
:1020880081072000a00920003374200081497800ce
:1020980080497800824978001200200061042000fd
:1020a8007005200023742000814978008049780059
:1020b8008249780043c7bf000047b200f04f500084
:1020c800fcff3a0042c7bf000042b2000004e00033
:1020d800fcff32000080fa00000006000000fa0051
:1020e8000000eb0050088800703821007008880054
:1020f8008500a9009500a90013e1a8000080fa0056
:10210800000006000000fa00ceff070078ff070075
:10211800340007004d000700ed00070059ff0700d5
:1021280082000700cb010700ffff3700809fbe0039
:102138000000fa00e1c1bf00684060000004e00050
:1021480007003200b0548000c15480006100400094
:10215800e0804800b0548800c15488000600370069
:10216800b0548000c154800061005000e0805800e5
:10217800b0548800c15488008b40a9000080fa0040
:102188004f00be0000400600809fbe000000fa001d
:10219800f1c1bf00684060000004e00007003200a1
:1021a800d0548000e154800061004000e080480085
:1021b800d0548800e154880006003700d0548000cd
:1021c800e154800061005000e0805800d05488003d
:1021d800e15488008d60a9000080fa004f00be001d
:1021e800004006000000fa00e041a800e0c1a90094
:1021f800e0e1a800e161a900e1a1a900e1e1a900ed
:10220800211e200091407800f0c8b30000c0600093
:10221800e2e1b700e2e1a900e301a80000fa20002a
:10222800300f8800e1c1bf007040b300e1e1b700a2
:10223800c1c0bf007040b300c1e0b7008b40a90027
:102248009b40a8000080fa00000006000000fa0089
:10225800f041a800f0c1a900f0e1a900f161a900ce
:10226800f1a1a900f1e1a900211f20009140780007
:10227800f0c8b30000c06000f2e1b700f2e1a900c5
:10228800f301a80000fa2000b00f8800f1c1bf00d8
:102298007040b300f1e1b700910c20009140780044
:1022a80000c7b30000c07000c9e0b7008d60a90086
:1022b8009d60a8000080fa00000006000000fa00f7
:1022c800b0548000c15480000080fa00000006006d
:1022d8000000fa00200f80000080fa0000000600cd
:1022e8000000fa00d0548000e15480000080fa0019
:1022f800000006000000fa00a00f80000080fa002d
:10230800000006003400f800881f7800080020004c
:10231800a80188004f0478000000fa008580a90011
:102328000080fa003400f900004006000000fa00be
:10233800b8fd070000c1b30032e8b70021e2a900e8
:1023480021a2a9002182a9002162a900112220004e
:1023580091407800c0cfb30000c0600021e2b70010
:1023680020e2a90020c2a90020a2a9002082a90079
:102378002062a900012220009140780090cfb3008c
:1023880000c0600020e2b7002002a900a0022000df
:102398004011880023e2a90023c2a90023a2a900b2
:1023a8002362a9002342a9002322a9002302a9002d
:1023b80022c2bf00f043b20022e2b70022a2a90065
:1023c8002282a9002262a9002242a9002222a90091
:1023d8002202a90000402400900588008580a900f9
:1023e8009580a8008560a9009560a80021e2a80052
:1023f8002342a8000080fa00000006000600fa0048
:102408001007980021079800c282a8000000eb007e
:10241800000f78000c00370023c2bf006140600045
:102428000004e000fcff32001e0078008000780005
:102438001e00900000804000104078000000fb0063
:10244800201188001e0fe8009e0078002e009000e2
:10245800808f5000f0ff390023c2bf006140600048
:102468000004e000fcff3200c282a9000080fa00ec
:10247800000006000600fa001007980021079800df
:102488000000eb00000f78000b00370022c2bf00ed
:10249800614060000004e000fcff32001e0078008c
:1024a800800078001e00900080804000301180007d
:1024b800804878001e0fe8009e0078002e009000eb
:1024c800808f5000f1ff39000080fa0000000600fc
:1024d8000000fa00011c200091407800c0cfb30032
:1024e80000c06000c0e1b700011c200091407800e6
:1024f80030cfb30000c06000c0e1b700c0c1bf006a
:102508006f406000c0e1b700703e2000200e8800d8
:10251800c901a800c921a800c941a800c881a9000b
:10252800c8a1a900c8c1a800c801a900c821a8005d
:10253800c841a900ca41a800d5a1a800d561a90031
:10254800d521a900d581a900d541a800d501a900a8
:102558000000eb00d00e88000000eb00c00e8800e1
:10256800c1e1a8000080fa00000006000200fa009d
:10257800000f78001e00e00006003d009e00780075
:102588000080eb000088b900c00e8800cbe2a900eb
:10259800030037001e007800c00e8800cbe2a800b8
:1025a8000080fa00000006000200fa00000f780020
:1025b8001e00e00006003d009e0078000080eb0051
:1025c8000088b900d00e8800cb82a800030037002d
:1025d8001e007800d00e8800cb82a9000080fa0087
:1025e800000006000000fa00113220009140780037
:1025f800c0cfb30000c0600021e3b70020c3bf0014
:102608007f40600001c4b3000140700020e3b700c0
:102618002043a8002143a9002343a8003132200009
:1026280091407800c0cfb30000c0600023e3b7003a
:1026380025e3a90080ceb30024e3b70021322000af
:102648009140780030ccb30000c060000024a000a6
:1026580022e3b7003003a8003023a8000080eb0075
:102668006019880085a0a90095a0a80021e3a8000a
:102678000080fa0000000600801f78000200fa00bf
:1026880010558000000f78001e0078000000e00060
:10269800040032001e007800e10f500004003200f0
:1026a8000500370000188000f05488000200370049
:1026b8000018800000558800105580000000e800d0
:1026c8001055880085a0a9000080fa004f00780006
:1026d800004006003600f800809fbe00829fbe00c2
:1026e800849fbe00869fbe000200fa00a4cabf00f5
:1026f8000004e00002003d000040eb00a4eab7003f
:10270800a4cabf000081fb0030118000804078001f
:1027180040832000000041000148780054aa2000ae
:102728004393200042aa200041832000c08020005b
:10273800d3f707000004e000130032003308a800b4
:10274800a5cabf000004e0000f00320032c8bf0075
:1027580051aa200091407800004278008141780019
:1027680042932000418b2000c080200013fa07000c
:10277800004f78001e04e000030032009e80fb003a
:10278800408b20001dff07008560a9000080fa002b
:102798004f03be004f02be004f01be004f00be00f7
:0827a8003600f90000400600b4
:020000040000fa
:1027b000960a00000800000002000000000000006f
:1027c0000000000000000000a20a0000020000005b
:1027d00002000000000000009e0a0000040000004b
:1027e00000000000a40a0000020000000200000037
:1027f000000000000c08000038010000000000008c
:10280000820a000014000000020000000000000026
:1028100000000000000000000000000001000000b7
:102820000000000000000000000800000c00000094
:1028300000000000f41700000c0000000000000081
:10284000460a00003c0000000000000044090000af
:0c28500002010000000000000000000079
:020000040000fa
:10285c000000fa0005e1a9000421a9000441a90027
:10286c004110200091407800f0ccb30000c0600013
:10287c000044a00004e1b70010002000000888000c
:10288c00f0342c0010088800510a20009140780088
:10289c00f0c8b30000c060000044a000a5e0b70081
:1028ac008460a9009460a80005e1a8000080fa00eb
:0428bc000000060012
:00000001FF
